:100CBE004D6F64653A0050617373576F7264006BC9
:100CCE006579646F776E0031003200330034003581
:100CDE00003600370038003900300077726F6E67CB
:100CEE002070617373776F7264210053756363654F
:100CFE007373210046696E6765727072696E740057
:0E0D0E0077726F6E672046696E67657221000E
:100D1C00015400064DEF01FFFFFFFF065F010003CA
:100D2C001100150A55000000000000000000000A28
:100D3C004301030304000000000000015301056699
:0B0D4C000000000000016500014200F3
:070D8700120EBF7FD07E07B2
:100D8E00D3EF9400EE940040147D727C00ED1D7044
:0D0D9E00011CED4C70F7EF1F70E61E80E3A6
:010DAB002225
:030EEC00DFFE2204
:100E7800AE07AF061EEF600C7FF5120EEC7FF51281
:050E88000EEC80EE22DB
:100EAF007580FFC290D291C2B700D2B7E5803322CE
:0C0E14007F38120E207F05120E787F3808
:100E2000120EAF40FBC290C291D2B78F8000C2B702
:010E3000229F
:100E8D00120EAF40FBD290C291D2B78F8000C2B785
:010E9D002232
:070E9E007FE87E03120ECE77
:0A0EA5007F01120E207F05020E7877
:100DAC00AE07ED7005EE24808003EE24C0FF120E1A
:100DBC0020120E31FF600C120E8D740129F9E43AE9
:040DCC00FA80EE2299
:100C5A00120EA57BFF7A0C79F9753700753819E4FD
:030C6A00FD7F010A
:0A0C6D008F328B348A358936AC05CE
:100C7700120EA585373985383AD3E53A9400E53918
:100C870094004030753B00753C72AD04AB34AA3517
:100C9700A936AF32120DACE53C153C7002153BD3BB
:100CA700E53C9400E53B940050E0E53A153A70C9FD
:070CB700153980C5020EA5EE
:0E0BEE00F53C753D327BFF7A0C79BEFD7F0130
:0A0BFC008F328B348A358936AC0540
:100C0600120EA5853C3E853D3FD3E53F9400E53E6B
:100C16009400403D754000754172AD04AB34AA3571
:100C2600A936AF32120DACAB39AA3AA93BAD38AFF3
:100C360037120DACE541154170021540D3E54194DC
:100C460000E540940050D3E53F153F70BC153E804B
:040C5600B8020EA52D
:100E4A00AE07AC03ED7005EE24808003EE24C0FFEC
:080E5A00120E20AF04020E8D00
:100DD000120E147F05120E78120E147F08120E20C8
:100DE0007F01120E207F06120E201F120E787F0C3C
:030DF000020E20D0
:0F0EBF0075890175A882758CF6758ADCD28C2234
:100E6200758920758DFD758BFDE4F587759850D2D7
:060E7200AFD2ACD28E22CB
:080EDC008F993099FDC29922A3
:070EE4003098FDC298AF99A0
:010EEB0022E4
:100D5800E4FDFC744D2DF8E6FF120EDC0DBD00011C
:100D68000CED64064C70ECE4FCFD745F2DF8E6FFB6
:0E0D7800120EDC0DBD00010CED64064C70EC9B
:010D8600224A
:0E0ECE00C293120D8ED2937F327E00020D8EE3
:100B720075A00FE5A0640F60317F0A7E00120D8E12
:100B8200E5A0640F6024AFA0EF24F5601024FE609E
:100B92001114601324077012754201800D75420210
:100BA2008008754203800375420475A0F0E5A064D5
:100BB200F060327F0A7E00120D8EE5A064F060259F
:100BC200AFA0EF2490601B24C0601224E0600924CF
:100BD200F07012756501800D7565028008756503F8
:0C0BE20080037565047F0A7E00020D8E02
:10080000E4F508F509F50AF50BF50CF50DF50E758F
:100810000F01F510751101120DD0120EA5120B72F9
:10082000E54264036003020A70E565640460030244
:100830000A70F542F5657537017538017539FF7530
:100840003A0C753BC4120BEEE50F450E7003020A1D
:1008500060E54270157BFF7A0C79CDF53775380F5E
:10086000FDFF120C6D120B7280E7E54264017022ED
:10087000E565B4011D74552509F876010509E509FA
:1008800070020508E4F542F5657BFF7A0C79D50224
:1008900009F4E54264017022E565B4021D74552532
:1008A00009F876020509E50970020508E4F542F544
:1008B000657BFF7A0C79D70209F4E5426401702266
:1008C000E565B4031D74552509F876030509E509A6
:1008D00070020508E4F542F5657BFF7A0C79D902D0
:1008E00009F4E54264017022E565B4041D745525E0
:1008F00009F876040509E50970020508E4F542F5F2
:10090000657BFF7A0C79DB0209F4E5426402702210
:10091000E565B4011D74552509F876050509E50955
:1009200070020508E4F542F5657BFF7A0C79DD027B
:1009300009F4E54264027022E565B4021D74552590
:1009400009F876060509E50970020508E4F542F59F
:10095000657BFF7A0C79DF0209F4E54264027021BD
:10096000E565B4031C74552509F876070509E50902
:1009700070020508E4F542F5657BFF7A0C79E180A9
:1009800073E54264027021E565B4041C74552509C1
:10099000F876080509E50970020508E4F542F565F1
:1009A0007BFF7A0C79E3804CE54264037021E565B6
:1009B000B4011C74552509F876090509E50970028A
:1009C0000508E4F542F5657BFF7A0C79E58025E5BD
:1009D0004264037029E565B4022474552509F8E4DE
:1009E000F60509E50970020508E4F542F5657BFFA7
:1009F0007A0C79E7F537753819FDFF120C6DE509AA
:100A0000640445087033F50AF50BAF0B74432FF8F7
:100A1000E6FE74552FF8E6FFB5060CE50B640345BA
:100A20000A7004F50EF50FEFB5060E050BE50B7019
:100A300002050A6404450A70D1E5096404450860AA
:100A400003020848E50F6401450E600302084812DE
:100A50000E9E7BFF7A0C79E9E4FDFF120DAC80F26B
:100A6000E50F450E700A120C5A120D87C2A9C28CEE
:100A7000E5426404600302081DE565640160030249
:100A8000081D7537017538017539FF753A0D753BCD
:100A900002120BEE120E62120D58E4F508F509125F
:100AA0000EE474122509F8A6070509E50970020588
:100AB00008C39410E5086480948040E3E51B700C43
:100AC000120C5A120D87C2A9C28C80FEE51B640964
:100AD000600302081D120E9E7BFF7A0D790EE4FD65
:060AE000FF120DAC80F2D4
:03000B00020DF3F0
:100DF300C0E0C0D0758CF6758ADCE554C3955350BA
:100E030004D2928002C2920554535407D0D0D0E04A
:010E130032AC
:03002300020EEFDB
:010EEF0032D0
:03000000020AE60B
:0C0AE600787FE4F6D8FD75816A020B2DC4
:100E3100BB010689828A83E0225002E722BBFE02BF
:090E4100E32289828A83E49322F2
:100AF200020800E493A3F8E493A34003F68001F212
:100B020008DFF48029E493A3F85407240CC8C33304
:100B1200C4540F4420C8834004F456800146F6DFD3
:100B2200E4800B0102040810204080900D1CE47E3A
:100B3200019360BCA3FF543F30E509541FFEE493C8
:100B4200A360010ECF54C025E060A840B8E493A38F
:100B5200FAE493A3F8E493A3C8C582C8CAC583CABA
:100B6200F0A3C8C582C8CAC583CADFE9DEE780BE72
:010D5700009B
:00000001FF
